:020000040800F2
:1000000000280020490B0008ED0A0008F30A000848
:10001000F90A0008FF0A0008050B000800000000AC
:100020000000000000000000000000000B0B0008B2
:10003000170B000800000000230B00082F0B00081E
:10004000910B0008910B0008910B0008910B000820
:10005000910B0008910B0008910B0008910B000810
:10006000910B0008910B0008910B0008910B000800
:10007000910B0008910B0008910B0008910B0008F0
:10008000910B0008910B0008910B0008910B0008E0
:10009000910B0008910B0008910B0008910B0008D0
:1000A000910B0008910B0008910B0008910B0008C0
:1000B000910B0008910B000800000000910B000854
:1000C000910B00080000000000000000910B0008E8
:1000D00000000000910B0008910B000800000000D8
:1000E000910B0008910B0008910B00080000000024
:1000F0000000000000000000000000000000000000
:0C01000000000000000000005FF808F1A3
:10010C0010B5054C237833B9044B13B10448AFF345
:10011C0000800123237010BD0C00002000000000A3
:10012C00B419000808B5034B1BB103490348AFF3DE
:10013C00008008BD0000000010000020B419000869
:10014C0080B582B000AF78607B68092B00F28081AB
:10015C0001A252F823F000BF8D010008D501000860
:10016C001D02000865020008AD020008F502000837
:10017C003D03000885030008CD03000815040008A2
:10018C0000220121B54800F0E3FF00220221B34810
:10019C0000F0DEFF00220421B04800F0D9FF00225D
:1001AC000821AE4800F0D4FF00221021AB4800F02B
:1001BC00CFFF00222021A94800F0CAFF01224021D4
:1001CC00A64800F0C5FF44E101220121A34800F03C
:1001DC00BFFF00220221A14800F0BAFF0022042137
:1001EC009E4800F0B5FF012208219C4800F0B0FFAA
:1001FC0001221021994800F0ABFF012220219748E1
:10020C0000F0A6FF01224021944800F0A1FF20E15C
:10021C0000220121914800F09BFF002202218F480F
:10022C0000F096FF012204218C4800F091FF00227F
:10023C0008218A4800F08CFF00221021874800F02A
:10024C0087FF01222021854800F082FF00224021F7
:10025C00824800F07DFFFCE0002201217F4800F085
:10026C0077FF002202217D4800F072FF002204215A
:10027C007A4800F06DFF00220821784800F068FFF2
:10028C0001221021754800F063FF012220217348E0
:10029C0000F05EFF00224021704800F059FFD8E0CA
:1002AC00012201216D4800F053FF002202216B480E
:1002BC0000F04EFF00220421684800F049FF0122A3
:1002CC000821664800F044FF01221021634800F029
:1002DC003FFF00222021614800F03AFF002240211C
:1002EC005E4800F035FFB4E0002201215B4800F0CD
:1002FC002FFF01220221594800F02AFF002204217D
:10030C00564800F025FF00220821544800F020FF39
:10031C0001221021514800F01BFF002220214F48E0
:10032C0000F016FF002240214C4800F011FF90E035
:10033C0000220121494800F00BFF0122022147480D
:10034C0000F006FF00220421444800F001FF0022C7
:10035C000821424800F0FCFE002210213F4800F02A
:10036C00F7FE002220213D4800F0F2FE0022402141
:10037C003A4800F0EDFE6CE000220121374800F015
:10038C00E7FE00220221354800F0E2FE00220421A3
:10039C00324800F0DDFE01220821304800F0D8FE82
:1003AC00012210212D4800F0D3FE012220212B48E0
:1003BC0000F0CEFE01224021284800F0C9FE48E0A2
:1003CC0000220121254800F0C3FE0022022123480F
:1003DC0000F0BEFE00220421204800F0B9FE0022ED
:1003EC0008211E4800F0B4FE002210211B4800F02A
:1003FC00AFFE00222021194800F0AAFE0022402165
:10040C00164800F0A5FE24E000220121134800F05C
:10041C009FFE00220221114800F09AFE00220421C6
:10042C000E4800F095FE002208210C4800F090FECA
:10043C0001221021094800F08BFE002220210748E0
:10044C0000F086FE00224021044800F081FE00E00E
:10045C0000BF00BF0837BD4680BD00BF000C014087
:10046C0080B582B000AF78607B68092B00F2BC814C
:10047C0001A252F823F000BFAD04000801050008EA
:10048C0055050008A9050008FD05000851060008DF
:10049C00A5060008F90600084D070008A10700088A
:1004AC0000228021D34800F053FE00224FF48071CB
:1004BC00D04800F04DFE00224FF40071CD4800F002
:1004CC0047FE00224FF48061CA4800F041FE002232
:1004DC004FF40061C74800F03BFE00224FF48051FE
:1004EC00C44800F035FE01224FF40051C14800F021
:1004FC002FFE7AE101228021BE4800F029FE002265
:10050C004FF48071BB4800F023FE00224FF40071C1
:10051C00B84800F01DFE01224FF48061B54800F090
:10052C0017FE01224FF40061B24800F011FE0122C7
:10053C004FF48051AF4800F00BFE01224FF40051F4
:10054C00AC4800F005FE50E100228021A94800F0E3
:10055C00FFFD00224FF48071A64800F0F9FD012246
:10056C004FF40071A34800F0F3FD00224FF48061BA
:10057C00A04800F0EDFD00224FF400619D4800F012
:10058C00E7FD01224FF480519A4800F0E1FD002272
:10059C004FF40051974800F0DBFD26E1002280214A
:1005AC00944800F0D5FD00224FF48071914800F082
:1005BC00CFFD00224FF400718E4800F0C9FD0022DF
:1005CC004FF480618B4800F0C3FD01224FF40061B1
:1005DC00884800F0BDFD01224FF48051854800F0A1
:1005EC00B7FD00224FF40051824800F0B1FDFCE051
:1005FC00012280217F4800F0ABFD00224FF4807176
:10060C007C4800F0A5FD00224FF40071794800F001
:10061C009FFD01224FF48061764800F099FD012284
:10062C004FF40061734800F093FD00224FF48051A9
:10063C00704800F08DFD00224FF400516D4800F021
:10064C0087FDD2E0002280216A4800F081FD012262
:10065C004FF48071674800F07BFD00224FF400716D
:10066C00644800F075FD00224FF48061614800F091
:10067C006FFD01224FF400615E4800F069FD00221D
:10068C004FF480515B4800F063FD00224FF40051A1
:10069C00584800F05DFDA8E000228021554800F08C
:1006AC0057FD01224FF48071524800F051FD002299
:1006BC004FF400714F4800F04BFD00224FF4806165
:1006CC004C4800F045FD00224FF40061494800F011
:1006DC003FFD00224FF48051464800F039FD0022C6
:1006EC004FF40051434800F033FD7EE0002280219E
:1006FC00404800F02DFD00224FF480713D4800F081
:10070C0027FD00224FF400713A4800F021FD012230
:10071C004FF48061374800F01BFD01224FF400615B
:10072C00344800F015FD01224FF48051314800F09F
:10073C000FFD01224FF400512E4800F009FD54E04A
:10074C00002280212B4800F003FD00224FF4807121
:10075C00284800F0FDFC00224FF40071254800F001
:10076C00F7FC00224FF48061224800F0F1FC0022DB
:10077C004FF400611F4800F0EBFC00224FF4805155
:10078C001C4800F0E5FC00224FF40051194800F021
:10079C00DFFC2AE000228021164800F0D9FC002260
:1007AC004FF48071134800F0D3FC00224FF4007119
:1007BC00104800F0CDFC00224FF480610D4800F091
:1007CC00C7FC01224FF400610A4800F0C1FC002272
:1007DC004FF48051074800F0BBFC00224FF400514D
:1007EC00044800F0B5FC00E000BF00BF0837BD4670
:1007FC0080BD00BF000C014080B584B000AF00F09C
:10080C00C3F900F0A3F800F0DDF8012220214E48D6
:10081C0000F09EFC00224FF400714B4800F098FC55
:10082C0000224021484800F093FC00224FF48071D4
:10083C00454800F08DFC00228021434800F088FCE4
:10084C0001224FF48061404800F082FC0823FB60D9
:10085C000523BB6000237B6029E0FB685A1EFA600D
:10086C001846FFF76DFCBB685A1EBA601846FFF7B6
:10087C00F7FDBB68002B13DA0323BB60BB685A1E61
:10088C00BA601846FFF7ECFD01224FF480712E4838
:10089C0000F05EFC00224FF480612B4800F058FC05
:1008AC004FF47A7000F0D2F97B6801337B607B687F
:1008BC00072BD2DD01228021234800F049FC0022C5
:1008CC002021214800F044FC01224FF400711E4805
:1008DC0000F03EFC00224FF480711B4800F038FC05
:1008EC000523FB600823BB6000233B6027E0BB684B
:1008FC005A1EBA601846FFF7B3FDFB685A1EFA6021
:10090C001846FFF71DFCFB68002B11DA0323FB6074
:10091C00FB685A1EFA601846FFF712FC01224021B0
:10092C00094800F015FC00228021074800F010FC5B
:10093C004FF47A7000F08AF93B6801333B603B68F6
:10094C00072BD4DD61E700BF0008014080B590B0F3
:10095C0000AF07F1180328220021184601F01CF8FB
:10096C003B1D00221A605A609A60DA601A610223F9
:10097C00BB610123BB621023FB6200237B6307F185
:10098C001803184600F0FCFB0346002B01D000F0C6
:10099C006FF80F237B600023BB600023FB600023F8
:1009AC003B6100237B613B1D0021184600F068FE73
:1009BC000346002B01D000F05BF800BF4037BD466A
:1009CC0080BD000080B586B000AF07F1080300229F
:1009DC001A605A609A60DA60224B9B69214A43F094
:1009EC00040393611F4B9B6903F004037B607B68DA
:1009FC001C4B9B691B4A43F008039361194B9B6981
:100A0C0003F008033B603B6800224FF4FC6116487E
:100A1C0000F09EFB002243F6FF71144800F098FB97
:100A2C004FF4FC63BB600123FB6000233B6102239A
:100A3C007B6107F1080319460B4800F00FFA43F6E7
:100A4C00FF73BB600123FB6000233B6102237B61CE
:100A5C0007F108031946054800F000FA00BF1837E3
:100A6C00BD4680BD0010024000080140000C014052
:100A7C0080B400AF72B600BFFEE7000080B485B052
:100A8C0000AF154B9B69144A43F001039361124B61
:100A9C009B6903F00103BB60BB680F4BDB690E4A1B
:100AAC0043F08053D3610C4BDB6903F080537B60C4
:100ABC007B680A4B5B68FB60FB6823F0E063FB60C0
:100ACC00FB6843F08063FB60044AFB68536000BF23
:100ADC001437BD4680BC7047001002400000014036
:100AEC0080B400AFFEE780B400AFFEE780B400AF87
:100AFC00FEE780B400AFFEE780B400AFFEE780B441
:100B0C0000AF00BFBD4680BC704780B400AF00BFD3
:100B1C00BD4680BC704780B400AF00BFBD4680BCF2
:100B2C00704780B500AF00F075F800BF80BD80B491
:100B3C0000AF00BFBD4680BC704700000C480D499B
:100B4C000D4A002302E0D458C4500433C4188C421C
:100B5C00F9D30A4A0A4C002301E013600432A24282
:100B6C00FBD3FFF7E4FF00F0F3FEFFF745FE704701
:100B7C00000000200C000020F41900080C000020DC
:100B8C002C000020FEE7000080B500AF084B1B686E
:100B9C00074A43F010031360032000F02BF90F20D9
:100BAC0000F008F8FFF76AFF0023184680BD00BF6D
:100BBC000020024080B582B000AF7860124B1A68FA
:100BCC00124B1B7819464FF47A73B3FBF1F3B2FB5B
:100BDC00F3F3184600F035F90346002B01D001233E
:100BEC000EE07B680F2B0AD8002279684FF0FF309B
:100BFC0000F00BF9064A7B681360002300E0012328
:100C0C0018460837BD4680BD0000002008000020B3
:100C1C000400002080B400AF054B1B781A46054B2E
:100C2C001B681344034A136000BFBD4680BC704769
:100C3C00080000202800002080B400AF024B1B6885
:100C4C001846BD4680BC70472800002080B584B093
:100C5C0000AF7860FFF7F0FFB8607B68FB60FB6863
:100C6C00B3F1FF3F05D00A4B1B781A46FB681344BF
:100C7C00FB6000BFFFF7E0FF0246BB68D31AFA68BF
:100C8C009A42F7D800BF00BF1037BD4680BD00BFE9
:100C9C000800002080B485B000AF78607B6803F05A
:100CAC000703FB600C4BDB68BB60BA684FF6FF03B5
:100CBC001340BB60FB681A02BB68134343F0BF636D
:100CCC0043F40033BB60044ABB68D36000BF1437E5
:100CDC00BD4680BC704700BF00ED00E080B400AFA3
:100CEC00044BDB681B0A03F007031846BD4680BCA7
:100CFC00704700BF00ED00E080B483B000AF034646
:100D0C003960FB7197F90730002B0ADB3B68DAB2CC
:100D1C000C4997F907301201D2B20B4483F8002327
:100D2C000AE03B68DAB20849FB7903F00F03043B95
:100D3C001201D2B20B441A7600BF0C37BD4680BCF0
:100D4C00704700BF00E100E000ED00E080B489B026
:100D5C0000AFF860B9607A60FB6803F00703FB61D1
:100D6C00FB69C3F10703042B28BF0423BB61FB6998
:100D7C000433062B02D9FB69033B00E000237B61A3
:100D8C004FF0FF32BB6902FA03F3DA43BB681A4037
:100D9C007B699A404FF0FF317B6901FA03F3D94329
:100DAC007B680B40134318462437BD4680BC704704
:100DBC0080B582B000AF78607B68013BB3F1807F77
:100DCC0001D301230FE00A4A7B68013B53600F21DA
:100DDC004FF0FF30FFF790FF054B00229A60044B59
:100DEC0007221A60002318460837BD4680BD00BF95
:100DFC0010E000E080B582B000AF78607868FFF753
:100E0C0049FF00BF0837BD4680BD80B586B000AF36
:100E1C000346B9607A60FB7300237B61FFF75EFFCA
:100E2C0078617A68B9687869FFF790FF024697F99C
:100E3C000F3011461846FFF75FFF00BF1837BD464D
:100E4C0080BD80B582B000AF78607868FFF7B0FFE6
:100E5C00034618460837BD4680BD000080B48BB0F1
:100E6C0000AF7860396000237B6200233B6248E16D
:100E7C0001227B6A02FA03F3FB613B681B68FA6987
:100E8C001340BB61BA69FB699A4240F037813B68F9
:100E9C005B68A34A93425ED0A14A934275D8A14A9B
:100EAC00934258D09F4A93426FD89F4A934252D054
:100EBC009D4A934269D89D4A93424CD09B4A934297
:100ECC0063D89B4A934246D0994A93425DD8122BE1
:100EDC002AD8122B59D801A252F823F0630F00081C
:100EEC003D0F00084F0F0008910F0008970F0008E6
:100EFC00970F0008970F0008970F0008970F00082E
:100F0C00970F0008970F0008970F0008970F00081D
:100F1C00970F0008970F0008970F0008970F00080D
:100F2C00450F0008590F0008824A934213D02CE059
:100F3C003B68DB683B6229E03B68DB6804333B625F
:100F4C0024E03B68DB6808333B621FE03B68DB68EE
:100F5C000C333B621AE03B689B68002B02D10423E4
:100F6C003B6213E03B689B68012B05D108233B6275
:100F7C007B68FA691A6109E008233B627B68FA69AD
:100F8C005A6103E000233B6200E000BFBB69FF2B0A
:100F9C0001D87B6801E07B6804337B61BB69FF2B64
:100FAC0002D87B6A9B0002E07B6A083B9B003B619A
:100FBC007B691A680F213B6901FA03F3DB431A4082
:100FCC00396A3B6901FA03F31A437B691A603B687F
:100FDC005B6803F08053002B00F09080564B9B69AC
:100FEC00554A43F001039361534B9B6903F0010392
:100FFC00BB60BB68514A7B6A9B08023352F82330B2
:10100C00FB607B6A03F003039B000F2202FA03F3DD
:10101C00DB43FA681340FB607B68494A93420DD06E
:10102C007B68484A934207D07B68474A934201D178
:10103C00022304E0032302E0012300E000237A6A88
:10104C0002F0030292009340FA681343FB603B49A1
:10105C007B6A9B080233FA6841F823203B685B6883
:10106C0003F48033002B06D0384B1A683749BB6920
:10107C0013430B6006E0354B1A68BB69DB433349FD
:10108C0013400B603B685B6803F40033002B06D005
:10109C002E4B5A682D49BB6913434B6006E02B4B12
:1010AC005A68BB69DB43294913404B603B685B685A
:1010BC0003F48013002B06D0244B9A682349BB6998
:1010CC0013438B6006E0214B9A68BB69DB431F49D5
:1010DC0013408B603B685B6803F40013002B06D055
:1010EC001A4BDA681949BB691343CB6006E0174BFE
:1010FC00DA68BB69DB4315491340CB607B6A01336B
:10110C007B623B681A687B6A22FA03F3002B7FF43C
:10111C00AFAE00BF00BF2C37BD4680BC704700BFD0
:10112C0000003210000031100000221000002110CD
:10113C0000001210000011100010024000000140CD
:10114C0000080140000C0140001001400004014067
:10115C0080B483B000AF78600B467B8013467B7005
:10116C007B78002B03D07A887B681A6103E07B883C
:10117C001A047B681A6100BF0C37BD4680BC7047EF
:10118C0080B586B000AF78607B68002B01D101235D
:10119C006CE27B681B6803F00103002B00F0878076
:1011AC00924B5B6803F00C03042B0CD08F4B5B68E9
:1011BC0003F00C03082B12D18C4B5B6803F48033C7
:1011CC00B3F5803F0BD1894B1B6803F40033002B24
:1011DC006CD07B685B68002B68D1012346E27B688E
:1011EC005B68B3F5803F06D1804B1B687F4A43F4A4
:1011FC00803313602EE07B685B68002B0CD17B4B3B
:10120C001B687A4A23F480331360784B1B68774A47
:10121C0023F4802313601DE07B685B68B3F5A02F7B
:10122C000CD1724B1B68714A43F4802313606F4BD3
:10123C001B686E4A43F4803313600BE06B4B1B68E6
:10124C006A4A23F480331360684B1B68674A23F4A3
:10125C00802313607B685B68002B13D0FFF7ECFCDA
:10126C00386108E0FFF7E8FC02463B69D31A642BAF
:10127C0001D90323FAE15D4B1B6803F40033002B07
:10128C00F0D014E0FFF7D8FC386108E0FFF7D4FC8D
:10129C0002463B69D31A642B01D90323E6E1534B75
:1012AC001B6803F40033002BF0D100E000BF7B6817
:1012BC001B6803F00203002B63D04C4B5B6803F0FC
:1012CC000C03002B0BD0494B5B6803F00C03082B71
:1012DC001CD1464B5B6803F48033002B16D1434B77
:1012EC001B6803F00203002B05D07B681B69012BE4
:1012FC0001D00123BAE13D4B1B6823F0F8027B6857
:10130C005B69DB00394913430B603AE07B681B696E
:10131C00002B20D0364B01221A60FFF78DFC386170
:10132C0008E0FFF789FC02463B69D31A022B01D96E
:10133C0003239BE12D4B1B6803F00203002BF0D021
:10134C002A4B1B6823F0F8027B685B69DB0027499A
:10135C0013430B6015E0264B00221A60FFF76CFC60
:10136C00386108E0FFF768FC02463B69D31A022B90
:10137C0001D903237AE11D4B1B6803F00203002BF8
:10138C00F0D17B681B6803F00803002B3AD07B6814
:10139C009B69002B19D0174B01221A60FFF74CFCEC
:1013AC00386108E0FFF748FC02463B69D31A022B70
:1013BC0001D903235AE10D4B5B6A03F00203002BA6
:1013CC00F0D0012000F0A6FA1CE00A4B00221A60B3
:1013DC00FFF732FC38610FE0FFF72EFC02463B6949
:1013EC00D31A022B08D9032340E100BF001002409E
:1013FC0000004242800442429E4B5B6A03F00203AF
:10140C00002BE9D17B681B6803F00403002B00F070
:10141C00A6800023FB75974BDB6903F08053002BF0
:10142C000DD1944BDB69934A43F08053D361914BBC
:10143C00DB6903F08053BB60BB680123FB758E4BEB
:10144C001B6803F48073002B18D18B4B1B688A4AE2
:10145C0043F480731360FFF7EFFB386108E0FFF78C
:10146C00EBFB02463B69D31A642B01D90323FDE045
:10147C00814B1B6803F48073002BF0D07B68DB6816
:10148C00012B06D17B4B1B6A7A4A43F00103136292
:10149C002DE07B68DB68002B0CD1764B1B6A754A00
:1014AC0023F001031362734B1B6A724A23F004038B
:1014BC0013621CE07B68DB68052B0CD16D4B1B6A3F
:1014CC006C4A43F0040313626A4B1B6A694A43F08B
:1014DC00010313620BE0674B1B6A664A23F001039E
:1014EC001362644B1B6A634A23F0040313627B6828
:1014FC00DB68002B15D0FFF79FFB38610AE0FFF784
:10150C009BFB02463B69D31A41F28832934201D9C4
:10151C000323ABE0574B1B6A03F00203002BEED006
:10152C0014E0FFF789FB38610AE0FFF785FB024600
:10153C003B69D31A41F28832934201D9032395E0D7
:10154C004C4B1B6A03F00203002BEED1FB7D012BED
:10155C0005D1484BDB69474A23F08053D3617B6844
:10156C00DB69002B00F08180424B5B6803F00C03BD
:10157C00082B61D07B68DB69022B46D13F4B0022E4
:10158C001A60FFF759FB386108E0FFF755FB02467C
:10159C003B69D31A022B01D9032367E0354B1B6837
:1015AC0003F00073002BF0D17B681B6AB3F5803F0E
:1015BC0008D1304B5B6823F400327B689B682D4963
:1015CC0013434B602B4B5B6823F474127B68196AD2
:1015DC007B685B6A0B43274913434B60274B012203
:1015EC001A60FFF729FB386108E0FFF725FB02467C
:1015FC003B69D31A022B01D9032337E01D4B1B681F
:10160C0003F00073002BF0D02FE01C4B00221A606B
:10161C00FFF712FB386108E0FFF70EFB02463B694F
:10162C00D31A022B01D9032320E0124B1B6803F0C1
:10163C000073002BF0D118E07B68DB69012B01D122
:10164C00012313E00B4B5B68FB60FB6803F48032F7
:10165C007B681B6A9A4206D1FB6803F470127B68A4
:10166C005B6A9A4201D0012300E000231846183728
:10167C00BD4680BD00100240007000406000424238
:10168C0080B584B000AF786039607B68002B01D1E5
:10169C000123D0E06A4B1B6803F007033A689A42B7
:1016AC0010D9674B1B6823F0070265493B6813434D
:1016BC000B60634B1B6803F007033A689A4201D036
:1016CC000123B8E07B681B6803F00203002B20D0D9
:1016DC007B681B6803F00403002B05D0594B5B6837
:1016EC00584A43F4E06353607B681B6803F00803BB
:1016FC00002B05D0534B5B68524A43F46053536044
:10170C00504B5B6823F0F0027B689B684D49134398
:10171C004B607B681B6803F00103002B40D07B6897
:10172C005B68012B07D1474B1B6803F40033002B7C
:10173C0015D101237FE07B685B68022B07D1414BFD
:10174C001B6803F00073002B09D1012373E03D4BA0
:10175C001B6803F00203002B01D101236BE0394B12
:10176C005B6823F003027B685B68364913434B606C
:10177C00FFF762FAF8600AE0FFF75EFA0246FB68D0
:10178C00D31A41F28832934201D9032353E02D4BF3
:10179C005B6803F00C027B685B689B009A42EBD1A0
:1017AC00274B1B6803F007033A689A4210D2244B6C
:1017BC001B6823F0070222493B6813430B60204B44
:1017CC001B6803F007033A689A4201D0012332E008
:1017DC007B681B6803F00403002B08D0194B5B6873
:1017EC0023F4E0627B68DB68164913434B607B682B
:1017FC001B6803F00803002B09D0124B5B6823F421
:10180C0060527B681B69DB000E4913434B6000F090
:10181C0021F802460B4B5B681B0903F00F030A49C6
:10182C00CB5C22FA03F3094A1360094B1B68184678
:10183C00FFF7C0F9002318461037BD4680BD00BF26
:10184C000020024000100240DC19000800000020BB
:10185C000400002090B48AB000AF2A4B3C1D0FCB83
:10186C0084E80F0040F201233B800023FB6100233E
:10187C00BB6100237B6200237B6100233B62224B14
:10188C005B68FB61FB6903F00C03042B02D0082B93
:10189C0003D02DE01D4B3B622DE0FB699B0C03F04C
:1018AC000F0307F12802134413F8243C7B61FB69F6
:1018BC0003F48033002B13D0134B5B685B0C03F0E9
:1018CC00010307F12802134413F8283CBB617B6920
:1018DC000E4A02FB03F2BB69B2FBF3F37B6204E03A
:1018EC007B690B4A02FB03F37B627B6A3B6202E07F
:1018FC00064B3B6200BF3B6A18462837BD4690BC7E
:10190C00704700BFCC1900080010024000127A008A
:10191C0000093D0080B485B000AF78600A4B1B68AD
:10192C000A4AA2FB03235B0A7A6802FB03F3FB60FF
:10193C0000BFFB685A1EFA60002BF9D100BF00BF34
:10194C001437BD4680BC704700000020D34D621098
:10195C0070B500260C4D0D4C641BA410A64209D189
:10196C0000F022F800260A4D0A4C641BA410A64273
:10197C0005D170BD55F8043B98470136EEE755F894
:10198C00043B98470136F2E7EC190008EC19000803
:10199C00EC190008F019000803460244934200D1E8
:1019AC00704703F8011BF9E7F8B500BFF8BC08BC99
:1019BC009E467047F8B500BFF8BC08BC9E46704701
:1019CC0002030405060708090A0B0C0D0E0F101074
:1019DC0000000000000000000102030406070809D3
:0419EC0031010008BD
:0419F0000D010008DD
:0C19F4000024F4001000000001000000BE
:0400000508000B499B
:00000001FF
